:1000000014C02EC02DC02CC02BC02AC02AC028C0AE
:1000100027C067C125C024C023C022C021C020C082
:100020001FC01EC01DC01CC01BC011241FBECFE5B9
:10003000D2E0DEBFCDBF11E0A0E6B0E0EAE7F4E138
:1000400002C005900D92A837B107D9F711E0A8E7D3
:10005000B1E001C01D92A03AB107E1F731D00BCA5F
:10006000CFCF1F920F920FB60F9211248F939F93B1
:1000700080917E0190917F01019690937F01809302
:100080007E0180918E0190918F01019690938F0156
:1000900080938E011DBC1CBC9F918F910F900FBE51
:1000A0000F901F901895EDD280EF8ABB8FE08BBB2D
:1000B0008FEF84BB87BB81BB60D26BD178940895EE
:1000C0009F92AF92BF92CF92DF92EF92FF920F93E7
:1000D0001F93CF93DF93E7DF3AD27BD280937C01EB
:1000E00080E060E040E020E0EDD1C4E6D0E099247B
:1000F00093941ED1982F80937B0180917D01813054
:1001000009F0BCC040D258D290917B01892F815018
:100110008830A0F580917C01981769F580917E0167
:1001200090917F019093910180939001DCD1209177
:1001300080014091900150919101E22FF0E0EE0F8B
:10014000FF1FE857FE4F51834083809181019091BA
:100150008201840F951F90938201809381012F5F0C
:100160002093800110927F0110927E0132D2809301
:100170007C0122D203C082E390E033D280917B01E4
:10018000893091F410927A01E2D110927D0180E0E1
:1001900060E040E020E096D11AD288EB9BE0FE01BF
:1001A0003197F1F70197D9F780917B018A3049F4B3
:1001B0008091600090916100853691058CF00A97DE
:1001C0000BC08B3069F4809160009091610021E058
:1001D000843F92072CF40A9690936100809360000C
:1001E00080918001833061F480918101909182013E
:1001F00063E070E02DD8CB0176D1E9D110927D017A
:100200006091600070916100882777FD8095982F3C
:100210007FD55B016C0120E030E04AE754E402D472
:100220007B018C0120E030E040E85FE346D5882385
:100230001CF461E070E01EC0C801B70120E03FEF90
:100240004FE757E4E4D4181694F4C601B50120E052
:1002500030E040E251E4E6D321D205C0CE0101975F
:10026000F1F76150704061157105C1F742CFC801C7
:10027000B70114D2CB010197F1F73BCF9930A9F424
:1002800080917901882389F490927A0190927D017E
:1002900010928001109282011092810110927F01D0
:1002A00010927E0196D180937C0180917B018C30ED
:1002B00081F480918001833061F48091810190917B
:1002C000820163E070E0C4D7AB0188E891E063E0AD
:1002D000AED088EB9BE0FE013197F1F70197D9F79B
:1002E00008CF1F920F920FB60F9211242F933F93B6
:1002F0004F935F936F937F938F939F93AF93BF932E
:10030000EF93FF9380917A01813009F424D1FF911A
:10031000EF91BF91AF919F918F917F916F915F917D
:100320004F913F912F910F900FBE0F901F901895F6
:10033000109283014091840150E023C0E52FF0E04A
:10034000EE59FF4F80818BBB40E018C089B3242F4A
:1003500030E0642F6F5FF901EA59FF4F90818923E4
:1003600061F44093840150938301852F8F5F220FA6
:10037000331F220F331F820F0895462F443031F769
:100380005F5F5430D8F2409384015093830180E042
:10039000089510BC89E189B9599886E080BD88E14B
:1003A0008AB908955D9BFECF8CB90895FC0141E0A8
:1003B00050E09A01220F331FCA0163E0880F991F92
:1003C0006A95E1F7280F391F2E173F0714F4A9018A
:1003D000F0CF4093950150939601485E534034F41A
:1003E00088EE93E09093960180939501209195017A
:1003F0003091960110C05D9BFECFCF01B90128D787
:10040000CB016AE070E024D7805D8CB9C9016AE055
:1004100070E01ED79B01121613066CF33093960101
:10042000209395015D9BFECF80E28CB90895DF9209
:10043000EF92FF920F931F93CF93DF93EC01F62E71
:100440008A01109283018AE3D82EBAE0EB2E18C0FD
:100450005D9BFECFEF5CECB9E1535D9BFECFDCB85A
:10046000F0E0EE0FFF1FEC0FFD1F808191819EDFFA
:100470005D9BFECFECB8809183018F5F80938301F9
:10048000E0918301EF1520F35D9BFECF81E48CB9F1
:100490005D9BFECF86E58CB95D9BFECF87E48CB972
:1004A0005D9BFECF8AE38CB9C80180DF5D9BFECFE8
:1004B0008AE08CB9DF91CF911F910F91FF90EF905F
:1004C000DF9008958F70806E809399016F70606DDA
:1004D00060939A014F70406B40939B012F7020678F
:1004E00020939C010895FC0187E2E031F8074CF568
:1004F000CF016AE070E0ACD6282F80939E01CF0137
:100500006AE070E0A5D6CB016AE070E0A1D6482F82
:1005100080939F01CF0164E670E09AD6CB016AE038
:1005200070E096D6382F80939D01CF0168EE73E07E
:100530008FD6CB016AE070E08BD680939701632F52
:1005400004C08EE06EE04EE02EE0BCDF089588B37C
:100550008FEF88BB0895809185018F5F809385011F
:10056000843018F0837080938501E0918501F0E07C
:10057000E756FE4F808188BB089582E083BF89B72C
:10058000816089BF089580916A00909187018130D0
:1005900039F4933010F49F5F06C010926A0002C0D5
:1005A000992321F0915090938701089581E08093E1
:1005B0006A008093870108959091860190688091E8
:1005C0008701880F880F880F892B85BB0895AF9806
:1005D0000895E6D668E070E03BD6809386018F5F91
:1005E0000895AF92BF92CF92DF92EF92FF920F9356
:1005F0001F93979AAA2797FDA095BA2FBC01CD010A
:1006000087D35B016C0120E030E04AE754E40AD272
:100610007B018C0120E030E040E85FE34ED388238B
:100620001CF461E070E020C0C801B70120E03FEF9A
:100630004FE757E4ECD21816A4F4C601B50120E048
:1006400030E040E251E4EED129D084E690E005C0EC
:10065000FC013197F1F76150704061157105C1F7E8
:1006600006C0C801B7011AD0CB010197F1F79798DE
:100670001F910F91FF90EF90DF90CF90BF90AF90C0
:1006800008951DBC1CBC8EB581608EBD80EA9FE0C4
:100690009BBD8ABD89B7806189BF0895EF92FF92A3
:1006A0000F931F937B018C0120E030E040E05FE47A
:1006B000D9D288237CF0C801B70120E030E040E0C7
:1006C0005FE45ED17FD39B01AC01205030404040BD
:1006D000504805C0C801B70175D39B01AC01B901F1
:1006E000CA011F910F91FF90EF900895A0E0B0E034
:1006F000EBE7F3E0D4C5DC012B01FA019C919230C9
:1007000008F439C1EB018881823008F433C1943098
:1007100069F4843009F02FC111969C911197898159
:10072000981709F428C1ABE6B0E025C1843009F47C
:1007300021C18230A9F4923009F01DC19A01AD01A6
:1007400088E0EA010990AE01E90109929E01815019
:10075000C1F7E201898111969C918923818308C1A7
:10076000923009F407C112962D903C901397EB013B
:100770008A819B811496AD90BD90CD90DC901797A7
:10078000EC80FD800E811F819101281B390BB9017E
:1007900037FF04C066277727621B730B6032710531
:1007A0000CF061C0121613066CF537014801062ED5
:1007B00004C096948794779467940A94D2F721E0C2
:1007C00030E040E050E004C0220F331F441F551FAB
:1007D0006A95D2F721503040404050402E213F21B1
:1007E00040235123211531054105510521F021E018
:1007F00030E040E050E079018A01E628F728082936
:1008000019293CC0232BD1F1260E371E3501460194
:10081000062E04C096948794779467940A94D2F72E
:1008200021E030E040E050E004C0220F331F441FBD
:10083000551F6A95D2F721503040404050402A2140
:100840003B214C215D21211531054105510521F048
:1008500021E030E040E050E059016A01A628B728C5
:10086000C828D9280BC0821593052CF01C01AA2496
:10087000BB24650103C0EE24FF24870111969C91DF
:10088000D20111968C91981709F445C0992339F03B
:10089000A80197012A193B094C095D0906C0A60168
:1008A00095012E193F09400B510B57FD08C01182CD
:1008B0003382228224833583468357831DC081E09F
:1008C00081833382228288279927DC01821B930B44
:1008D000A40BB50B84839583A683B7830DC0220F29
:1008E000331F441F551F24833583468357838281DA
:1008F0009381019793838283248135814681578137
:10090000DA01C9010197A109B1098F5F9F4FAF4F6C
:10091000BF4328F30BC0918333822282EA0CFB1C75
:100920000C1D1D1DE482F5820683178383E08083FE
:10093000248135814681578157FF1AC0C901AA27F2
:1009400097FDA095BA2F81709070A070B0705695E9
:10095000479537952795822B932BA42BB52B848312
:100960009583A683B7838281938101969383828343
:10097000DF0101C0D201CD01CDB7DEB7E2E1ABC4EA
:10098000A0E2B0E0E5ECF4E096C469837A838B835F
:100990009C832D833E834F835887E9E0EE2EF12C14
:1009A000EC0EFD1ECE010196B70181D38E010F5EC4
:1009B0001F4FCE010596B8017AD38A8991E0892725
:1009C0008A8BC701B801AE01475E5F4F8FDE9AD2B6
:1009D000A096E6E08CC4A0E2B0E0E0EFF4E06BC4E7
:1009E00069837A838B839C832D833E834F835887CF
:1009F000F9E0EF2EF12CEC0EFD1ECE010196B701B1
:100A000056D38E010F5E1F4FCE010596B8014FD30E
:100A1000C701B801AE01475E5F4F68DE73D2A09692
:100A2000E6E065C4A0E2B0E0E7E1F5E038C4698340
:100A30007A838B839C832D833E834F835887CE019B
:100A40000196BE01675F7F4F32D3CE010596BE018E
:100A50006F5E7F4F2CD39985923088F089898230E0
:100A6000C8F0943019F4823051F404C0843029F471
:100A7000923081F48BE690E0C6C0923049F420E0D9
:100A80009A858A89981321E02A87CE010996BBC0EE
:100A9000823049F420E09A858A89981321E02A8BD4
:100AA000CE014196B0C02D843E844F8458886D8815
:100AB0007E888F88988CEE24FF248701AA24BB248B
:100AC000650140E050E060E070E0E0E0F0E0C1018E
:100AD00081709070892BE9F0E60CF71C081D191D38
:100AE0009A01AB012A0D3B1D4C1D5D1D80E090E07D
:100AF000A0E0B0E0E614F7040805190520F481E051
:100B000090E0A0E0B0E0BA01A901480F591F6A1FA8
:100B10007B1FAA0CBB1CCC1CDD1C97FE08C081E00F
:100B200090E0A0E0B0E0A82AB92ACA2ADB2A3196D0
:100B3000E032F10549F0660C771C881C991C56942C
:100B4000479437942794C3CFFA85EA892B893C8947
:100B50008B859C85280F391F2E5F3F4F17C0CA0118
:100B600081709070892B61F016950795F794E79442
:100B700080E090E0A0E0B0E8E82AF92A0A2B1B2BDD
:100B800076956795579547952F5F3F4F77FDE7CF50
:100B90000CC0440F551F661F771F17FD4160EE0CF8
:100BA000FF1C001F111F21503040403090E05907BA
:100BB00090E0690790E4790760F32B8F3C8FDB01AD
:100BC000CA018F779070A070B07080349105A10534
:100BD000B10561F447FD0AC0E114F10401051105F6
:100BE00029F0405C5F4F6F4F7F4F40781A8EFE17A1
:100BF00011F081E08A8F4D8F5E8F6F8F78A383E035
:100C0000898FCE0149967ED1A096E2E164C3A8E126
:100C1000B0E0ECE0F6E04FC369837A838B839C837A
:100C20002D833E834F83588789E0E82EF12CEC0E0C
:100C3000FD1ECE010196B7013AD28E010F5E1F4F05
:100C4000CE010596B80133D28985823038F0898982
:100C5000823020F0C701B801A2D201C08FEF6896A0
:100C6000E6E045C3A8E1B0E0E7E3F6E024C369832A
:100C70007A838B839C832D833E834F83588789E0BF
:100C8000E82EF12CEC0EFD1ECE010196B7010FD21D
:100C90008E010F5E1F4FCE010596B80108D28985DF
:100CA000823038F08989823020F0C701B80177D2CC
:100CB00001C08FEF6896E6E01AC3A8E1B0E0E2E673
:100CC000F6E0F9C269837A838B839C832D833E830C
:100CD0004F83588789E0E82EF12CEC0EFD1ECE01E3
:100CE0000196B701E4D18E010F5E1F4FCE0105962C
:100CF000B801DDD18985823038F08989823020F0D1
:100D0000C701B8014CD201C081E06896E6E0EFC2AD
:100D1000A8E0B0E0EDE8F6E0CBC29B01AC0183E0D7
:100D20008983DA01C9018827B7FD83959927AA2706
:100D3000BB27B82E211531054105510519F482E074
:100D4000898339C08823A9F0203080E0380780E00B
:100D5000480780E8580729F460E070E080E09FECE5
:100D60002EC0EE24FF248701E21AF30A040B150BB0
:100D700002C079018A018EE1C82ED12CDC82CB829F
:100D8000ED82FE820F831887C801B7016CD00197EE
:100D90001816190684F4082E04C0EE0CFF1C001F60
:100DA000111F0A94D2F7ED82FE820F831887C81AAA
:100DB000D90ADC82CB82BA82CE010196A3D02896D2
:100DC000E9E092C2ACE0B0E0E7EEF6E078C2698319
:100DD0007A838B839C83CE010196BE016B5F7F4F2C
:100DE00066D18D81823061F1823050F1843021F4FE
:100DF0008E81882351F12EC02F81388537FD20C088
:100E00006E812F3131051CF06623F9F023C08EE18D
:100E100090E0821B930B29853A854B855C8504C045
:100E200056954795379527958A95D2F76623B1F061
:100E300050954095309521953F4F4F4F5F4F0EC0D5
:100E400020E030E040E050E009C02FEF3FEF4FEFEF
:100E50005FE704C020E030E040E050E8B901CA019B
:100E60002C96E2E048C2EF92FF920F931F937B0112
:100E70008C0180E0E81680E0F80681E0080780E059
:100E8000180788F48FEFE816F1040105110531F019
:100E900028F088E090E0A0E0B0E017C080E090E0AB
:100EA000A0E0B0E012C080E0E81680E0F80680E044
:100EB000080781E0180728F088E190E0A0E0B0E0A2
:100EC00004C080E190E0A0E0B0E020E230E040E04B
:100ED00050E0281B390B4A0B5B0B04C01695079595
:100EE000F794E7948A95D2F7F701ED58FF4F808188
:100EF000281B310941095109C9011F910F91FF9028
:100F0000EF900895DF92EF92FF920F931F93FC01F1
:100F1000E480F58006811781D1808081823048F499
:100F200080E090E0A0E1B0E0E82AF92A0A2B1B2B30
:100F3000A5C0843009F49FC0823021F4EE24FF2440
:100F4000870105C0E114F1040105110519F4E0E081
:100F5000F0E096C0628173819FEF623879070CF0F0
:100F60005BC022E83FEF261B370B2A3131052CF0FE
:100F700020E030E040E050E02AC0B801A701022E96
:100F800004C076956795579547950A94D2F781E006
:100F900090E0A0E0B0E004C0880F991FAA1FBB1F1B
:100FA0002A95D2F70197A109B1098E219F21A0238B
:100FB000B1230097A105B10521F081E090E0A0E008
:100FC000B0E09A01AB01282B392B4A2B5B2BDA01BD
:100FD000C9018F779070A070B07080349105A10521
:100FE000B10539F427FF09C0205C3F4F4F4F5F4FD9
:100FF00004C0215C3F4F4F4F5F4FE0E0F0E02030F6
:10100000A0E03A07A0E04A07A0E45A0710F0E1E0A8
:10101000F0E079018A0127C06038710564F5FB01B1
:10102000E158FF4FD801C7018F779070A070B07062
:1010300080349105A105B10539F4E7FE0DC080E4C7
:1010400090E0A0E0B0E004C08FE390E0A0E0B0E06A
:10105000E80EF91E0A1F1B1F17FF05C016950795FE
:10106000F794E794319687E016950795F794E794FF
:101070008A95D1F705C0EE24FF248701EFEFF0E059
:101080006E2F679566276795902F9F77D794DD24FD
:10109000D7948E2F8695492F462B582F5D29B7015F
:1010A000CA011F910F91FF90EF90DF900895FC010E
:1010B000DB01408151812281622F6F7770E0221F16
:1010C0002227221F9381892F880F822B282F30E01F
:1010D000991F9927991F11969C93119721153105F6
:1010E000A9F5411551056105710511F482E037C07C
:1010F00082E89FEF13969C938E9312979A01AB010F
:1011000067E0220F331F441F551F6A95D1F783E014
:101110008C930DC0220F331F441F551F12968D91C3
:101120009C911397019713969C938E93129720305E
:1011300080E0380780E0480780E4580758F31496A9
:101140002D933D934D935C93179708952F3F310551
:1011500079F4411551056105710519F484E08C930A
:10116000089564FF03C081E08C9312C01C9210C0EC
:101170002F57304013963C932E93129783E08C9315
:1011800087E0440F551F661F771F8A95D1F770645B
:1011900014964D935D936D937C93179708951F93C9
:1011A000DC01FB019C91923008F447C080818230C1
:1011B00008F443C0943051F411961C91843099F591
:1011C0008181682F70E0611B71093FC0843021F07C
:1011D000923031F48230B9F18181882389F12DC0B8
:1011E00011961C9111978230F1F081811817D9F472
:1011F00012962D913C9113978281938182179307C8
:1012000094F028173907BCF014968D919D910D909C
:10121000BC91A02D2481358146815781281739073B
:101220004A075B0718F4112341F00AC0821793079D
:10123000A407B50740F4112319F061E070E005C080
:101240006FEF7FEF02C060E070E0CB011F91089567
:1012500097FB092E07260AD077FD04D00CD006D0C4
:1012600000201AF4709561957F4F0895F6F79095D8
:1012700081959F4F0895AA1BBB1B51E107C0AA1F70
:10128000BB1FA617B70710F0A61BB70B881F991F27
:101290005A95A9F780959095BC01CD0108952F929C
:1012A0003F924F925F926F927F928F929F92AF92F6
:1012B000BF92CF92DF92EF92FF920F931F93CF9343
:1012C000DF93CDB7DEB7CA1BDB0B0FB6F894DEBFDA
:1012D0000FBECDBF09942A88398848885F846E8400
:1012E0007D848C849B84AA84B984C884DF80EE804A
:1012F000FD800C811B81AA81B981CE0FD11D0FB653
:10130000F894DEBF0FBECDBFED010895A0E0B0E0C0
:10131000EBE8F9E0CCCFEC01A880B980CA80DB8093
:10132000A114B104C104D10441F484E2A82E89EDD2
:10133000B82E8BE5C82E87E0D82EC601B5012DE169
:1013400033EF41E050E05AD027EA31E440E050E08A
:1013500036D07B018C01C601B5012DE133EF41E0B0
:1013600050E04CD0CA01B9012CEE34EF4FEF5FEFE3
:1013700026D06E0D7F1D801F911F97FF04C0615006
:10138000704080409048688379838A839B839B0167
:101390003F77C901CDB7DEB7EAE0A5CFB7DF089543
:1013A00083E791E0B3DF0895A0E0B0E0809373019C
:1013B00090937401A0937501B09376010895629F94
:1013C000D001739FF001829FE00DF11D649FE00D3D
:1013D000F11D929FF00D839FF00D749FF00D659F9E
:1013E000F00D9927729FB00DE11DF91F639FB00D9D
:1013F000E11DF91FBD01CF011124089597FB092EAE
:1014000005260ED057FD04D014D00AD0001C38F4A5
:1014100050954095309521953F4F4F4F5F4F089520
:10142000F6F790958095709561957F4F8F4F9F4F00
:101430000895A1E21A2EAA1BBB1BFD010DC0AA1F15
:10144000BB1FEE1FFF1FA217B307E407F50720F02D
:10145000A21BB30BE40BF50B661F771F881F991FA8
:101460001A9469F760957095809590959B01AC01F1
:0A147000BD01CF010895F894FFCFED
:10147A00C800EFDFBF7F010204080100000000007E
:10148A00000000000102020303030304040404042D
:10149A0004040405050505050505050505050505F5
:1014AA0005050506060606060606060606060606D5
:1014BA0006060606060606060606060606060606C2
:1014CA0006060607070707070707070707070707A5
:1014DA000707070707070707070707070707070792
:1014EA000707070707070707070707070707070782
:1014FA000707070707070707070707070707070772
:10150A000707070808080808080808080808080854
:10151A000808080808080808080808080808080841
:10152A000808080808080808080808080808080831
:10153A000808080808080808080808080808080821
:10154A000808080808080808080808080808080811
:10155A000808080808080808080808080808080801
:10156A0008080808080808080808080808080808F1
:10157A0008080808080808080808080808080808E1
:08158A00080808010000000040
:00000001FF
