:1000000014C02EC02DC02CC02BC02AC05AC028C07E
:1000100027C026C025C024C023C022C021C020C0C4
:100020001FC01EC01DC01CC01BC011241FBECFE5B9
:10003000D2E0DEBFCDBF10E0A0E6B0E0E6E9F4E03C
:1000400002C005900D92AE36B107D9F710E0AEE6CA
:10005000B0E001C01D92A837B107E1F70AD019C27C
:10006000CFCF80EF8ABB8FE08BBB8FEF84BB87BB8A
:100070000895CF93DF9380EF8ABB8FE08BBB8FEF28
:1000800084BB87BB81E062E043E024E082D0E7D01C
:10009000B3D07894C4E6D0E0BCD0D4D088EE93E05E
:1000A000FE013197F1F70197D9F780916E008F5FCC
:1000B00080936E0090E083709070892B69F7CFD0A9
:1000C000EBCF1F920F920FB60F9211242F933F93F5
:1000D0004F935F936F937F938F939F93AF93BF9350
:1000E000EF93FF9367D01DBC1CBCFF91EF91BF91B4
:1000F000AF919F918F917F916F915F914F913F91C0
:100100002F910F900FBE0F901F9018958FEF8ABB05
:1001100084E98BBB089510926F004091700050E00D
:1001200023C0E52FF0E0E05AFF4F80818BBB40E019
:1001300018C089B3242F30E0642F6F5FF901EC59A8
:10014000FF4F9081892361F44093700050936F00BA
:1001500084E0220F331F8A95E1F7852F822B0895C3
:10016000462F443031F75F5F5430D8F2409370002F
:1001700050936F008FEF089510BC89E189B95998A9
:1001800086E080BD88E18AB908955D9BFECF8CB979
:1001900008958F708061809376006F7060626093C5
:1001A00074004F704064409377002F702068209354
:1001B000730008958091760088BB28EE33E0C90172
:1001C0000197F1F78091740088BBC9010197F1F79D
:1001D0008091770088BBC9010197F1F78091730086
:1001E00088BBC9010197F1F788B38F7088BB089568
:1001F00088B38F7088BB08951DBC1CBC8EB5816010
:100200008EBD8AE191E49BBD8ABD89B7806189BFBB
:1002100008958091680090917200813039F4933094
:1002200010F49F5F06C01092680002C0992321F06D
:10023000915090937200089581E0809368008093BC
:100240007200089590917100906880917200880FFB
:10025000880F880F892B85BB0895AF98089577D0B4
:1002600064E070E003D080937100089597FB092E3D
:1002700007260AD077FD04D00CD006D000201AF44F
:10028000709561957F4F0895F6F7909581959F4FF2
:100290000895AA1BBB1B51E107C0AA1FBB1FA617CD
:1002A000B70710F0A61BB70B881F991F5A95A9F71F
:1002B00080959095BC01CD010895A0E0B0E0E2E604
:1002C000F1E096C0EC01A880B980CA80DB80A1145F
:1002D000B104C104D10441F484E2A82E89EDB82E02
:1002E0008BE5C82E87E0D82EC601B5012DE133EF8E
:1002F00041E050E05AD027EA31E440E050E036D007
:100300007B018C01C601B5012DE133EF41E050E0E6
:100310004CD0CA01B9012CEE34EF4FEF5FEF26D07D
:100320006E0D7F1D801F911F97FF04C061507040AC
:1003300080409048688379838A839B839B013F77C1
:10034000C901CDB7DEB7EAE06FC0B7DF089589E62F
:1003500090E0B3DF0895A0E0B0E08093690090934F
:100360006A00A0936B00B0936C000895629FD00167
:10037000739FF001829FE00DF11D649FE00DF11D60
:10038000929FF00D839FF00D749FF00D659FF00D0F
:100390009927729FB00DE11DF91F639FB00DE11DFC
:1003A000F91FBD01CF011124089597FB092E0526E1
:1003B0000ED057FD04D04BD00AD0001C38F4509515
:1003C0004095309521953F4F4F4F5F4F0895F6F779
:1003D00090958095709561957F4F8F4F9F4F0895B1
:1003E0002F923F924F925F926F927F928F929F9245
:1003F000AF92BF92CF92DF92EF92FF920F931F9333
:10040000CF93DF93CDB7DEB7CA1BDB0B0FB6F894E3
:10041000DEBF0FBECDBF09942A88398848885F8423
:100420006E847D848C849B84AA84B984C884DF8094
:10043000EE80FD800C811B81AA81B981CE0FD11D78
:100440000FB6F894DEBF0FBECDBFED010895A1E257
:100450001A2EAA1BBB1BFD010DC0AA1FBB1FEE1F3E
:10046000FF1FA217B307E407F50720F0A21BB30B89
:10047000E40BF50B661F771F881F991F1A9469F705
:1004800060957095809590959B01AC01BD01CF0161
:060490000895F894FFCF6F
:0E049600EFDFBF7F010204080101000000003B
:00000001FF
