:1000000014C02EC02DC02CC02BC02AC02AC028C0AE
:1000100027C041C125C024C023C022C021C020C0A8
:100020001FC01EC01DC01CC01BC011241FBECFE5B9
:10003000D2E0DEBFCDBF11E0A0E6B0E0E2E8F3E140
:1000400002C005900D92AA37B107D9F711E0AAE7CF
:10005000B1E001C01D92A939B107E1F728D08FC9DD
:10006000CFCF1F920F920FB60F9211248F939F93B1
:1000700080917E0190917F01019690937F01809302
:100080007E011DBC1CBC9F918F910F900FBE0F90E5
:100090001F9018957AD280EF8ABB8FE08BBB8FEFD1
:1000A00084BB87BB81BBEDD15FD1789408959F92CB
:1000B000AF92BF92CF92DF92EF92FF920F931F9376
:1000C000CF93DF93E7DF80E060E040E020E07CD189
:1000D00004D280937C01C9E1D0E09924939404D1A7
:1000E000982F80937B0180917D01813009F0ACC015
:1000F000CED1E6D190917B01892F8150883040F597
:1001000080917C01981709F580917E0190917F0183
:100110006CD1809181019091820120917E0130917A
:100120007F01820F931F90938201809381018091C0
:1001300080018F5F8093800110927F0110927E0179
:10014000CCD180937C01BCD103C082E390E0CDD1BF
:1001500080917B01893061F480916000882351F4A3
:1001600010926100B8D110927D019092600002C09F
:100170001092600080917B018A3049F48091620086
:1001800090916300833391058CF00A970BC08B30FC
:1001900069F4809162009091630021E08C329207B3
:1001A0002CF40A9690936300809362008091800102
:1001B000833061F4809181019091820163E070E06D
:1001C000CBD7CB0112D187D110927D016091620013
:1001D00070916300882777FD8095982F1DD55B016E
:1001E0006C0120E030E04AE753E4A0D37B018C01AE
:1001F00020E030E040E85FE3E4D488231CF461E0D1
:1002000070E01EC0C801B70120E03FEF4FE757E4A0
:1002100082D4181694F4C601B50120E030E040E223
:1002200051E484D3BFD105C0CE010197F1F76150ED
:10023000704061157105C1F752CFC801B701B2D145
:10024000CB010197F1F74BCF993089F410928201DD
:1002500010928101109280019092610090927D0134
:1002600010927F0110927E019092600038CF9C30F6
:1002700009F035CF809181019091820163E070E0B7
:100280006BD7CB017ED088E893E1FE013197F1F77F
:100290000197D9F724CF1F920F920FB60F92112416
:1002A0002F933F934F935F936F937F938F939F937E
:1002B000AF93BF93EF93FF9380916100813011F46E
:1002C000C2D001C0BCD0FF91EF91BF91AF919F917F
:1002D0008F917F916F915F914F913F912F910F90EF
:1002E0000FBE0F901F9018951092840110928301F9
:1002F0002091850130918601A4E6B0E060E070E0D5
:1003000026C08C918BBB40E050E01AC089B3FA0143
:10031000E859FF4F908189234F5F5F4F882381F415
:10032000209385013093860170938401609383014B
:10033000862F8F5F220F331F220F331F820F0895E6
:100340009A014430510511F76F5F7F4F1196643069
:100350007105BCF23093860120938501709384016E
:100360006093830180E0089510BC8CE089B9599AAC
:1003700086E080BD88E18AB908955D9BFECF8CB987
:100380000895FC0128EE33E040E011C05D9BFECFF4
:10039000CF01B901E1D6CB016AE070E0DDD6805D26
:1003A0008CB9C9016AE070E0D7D69B014F5F443039
:1003B00068F330938F0120938E0140938D015D9BF4
:1003C000FECF80E28CB908958F7080618093940194
:1003D0006F706062609392014F7040644093970128
:1003E0002F702068209390010895FC016AE070E06E
:1003F000B3D6282F80939601CF016AE070E0ACD687
:10040000CB016AE070E0A8D6482F80939801CF0115
:1004100064E670E0A1D6CB016AE070E09DD6382F8B
:1004200080939501CF0168EE73E096D6CB016AE028
:1004300070E092D680939101632FC6DF089588B350
:100440008F7088BB08958091940188BB2AEF30E0BB
:10045000C9010197F1F78091920188BBC901019709
:10046000F1F78091970188BBC9010197F1F780915D
:10047000900188BBC9010197F1F788B38F7088BBE1
:10048000089582E083BF89B7816089BF0895809114
:100490006C0090918801813039F4933010F49F5FA3
:1004A00006C010926C0002C0992321F091509093E5
:1004B0008801089581E080936C00809388010895FD
:1004C00090918701906880918801880F880F880F2C
:1004D000892B85BB0895AF980895E6D668E070E053
:1004E0003BD6809387018F5F0895AF92BF92CF92E2
:1004F000DF92EF92FF920F931F93979AAA2797FD8F
:10050000A095BA2FBC01CD0187D35B016C0120E01F
:1005100030E04AE753E40AD27B018C0120E030E06E
:1005200040E85FE34ED388231CF461E070E020C014
:10053000C801B70120E03FEF4FE757E4ECD21816AF
:10054000A4F4C601B50120E030E040E251E4EED170
:1005500029D089E190E005C0FC013197F1F76150A5
:10056000704061157105C1F706C0C801B7011AD006
:10057000CB010197F1F797981F910F91FF90EF90A2
:10058000DF90CF90BF90AF9008951DBC1CBC8EB57E
:1005900081608EBD88EE93E09BBD8ABD89B7806186
:1005A00089BF0895EF92FF920F931F937B018C01F7
:1005B00020E030E040E05FE4D9D288237CF0C8013D
:1005C000B70120E030E040E05FE45ED17FD39B01E3
:1005D000AC01205030404040504805C0C801B70130
:1005E00075D39B01AC01B901CA011F910F91FF9016
:1005F000EF900895A0E0B0E0EFEFF2E0D4C5DC01A9
:100600002B01FA019C91923008F439C1EB018881E9
:10061000823008F433C1943069F4843009F02FC17A
:1006200011969C9111978981981709F428C1ADE61C
:10063000B0E025C1843009F421C18230A9F49230A0
:1006400009F01DC19A01AD0188E0EA010990AE01EF
:10065000E90109929E018150C1F7E2018981119659
:100660009C918923818308C1923009F407C11296B5
:100670002D903C901397EB018A819B811496AD904D
:10068000BD90CD90DC901797EC80FD800E811F818E
:100690009101281B390BB90137FF04C06627772762
:1006A000621B730B603271050CF061C012161306E9
:1006B0006CF537014801062E04C096948794779410
:1006C00067940A94D2F721E030E040E050E004C0A3
:1006D000220F331F441F551F6A95D2F72150304017
:1006E000404050402E213F21402351232115310508
:1006F0004105510521F021E030E040E050E0790172
:100700008A01E628F728082919293CC0232BD1F1B2
:10071000260E371E35014601062E04C09694879496
:10072000779467940A94D2F721E030E040E050E0FB
:1007300004C0220F331F441F551F6A95D2F7215062
:100740003040404050402A213B214C215D21211561
:1007500031054105510521F021E030E040E050E055
:1007600059016A01A628B728C828D9280BC08215C4
:1007700093052CF01C01AA24BB24650103C0EE24C0
:10078000FF24870111969C91D20111968C919817A4
:1007900009F445C0992339F0A80197012A193B09AA
:1007A0004C095D0906C0A60195012E193F09400BB1
:1007B000510B57FD08C01182338222822483358376
:1007C000468357831DC081E081833382228288273C
:1007D0009927DC01821B930BA40BB50B84839583B3
:1007E000A683B7830DC0220F331F441F551F2483D8
:1007F00035834683578382819381019793838283D4
:100800002481358146815781DA01C9010197A10907
:10081000B1098F5F9F4FAF4FBF4328F30BC0918348
:1008200033822282EA0CFB1C0C1D1D1DE482F58222
:100830000683178383E08083248135814681578135
:1008400057FF1AC0C901AA2797FDA095BA2F81703A
:100850009070A070B0705695479537952795822B6C
:10086000932BA42BB52B84839583A683B783828196
:100870009381019693838283DF0101C0D201CD0170
:10088000CDB7DEB7E2E1ABC4A0E2B0E0E9E4F4E06A
:1008900096C469837A838B839C832D833E834F83A5
:1008A0005887E9E0EE2EF12CEC0EFD1ECE010196EC
:1008B000B70181D38E010F5E1F4FCE010596B8019F
:1008C0007AD38A8991E089278A8BC701B801AE0162
:1008D000475E5F4F8FDE9AD2A096E6E08CC4A0E21E
:1008E000B0E0E4E7F4E06BC469837A838B839C8394
:1008F0002D833E834F835887F9E0EF2EF12CEC0EC9
:10090000FD1ECE010196B70156D38E010F5E1F4F1B
:10091000CE010596B8014FD3C701B801AE01475EBD
:100920005F4F68DE73D2A096E6E065C4A0E2B0E057
:10093000EBE9F4E038C469837A838B839C832D834D
:100940003E834F835887CE010196BE01675F7F4F7C
:1009500032D3CE010596BE016F5E7F4F2CD39985B1
:10096000923088F089898230C8F0943019F482304E
:1009700051F404C0843029F4923081F48DE690E083
:10098000C6C0923049F420E09A858A89981321E004
:100990002A87CE010996BBC0823049F420E09A85AF
:1009A0008A89981321E02A8BCE014196B0C02D840C
:1009B0003E844F8458886D887E888F88988CEE247A
:1009C000FF248701AA24BB24650140E050E060E0D9
:1009D00070E0E0E0F0E0C10181709070892BE9F0F7
:1009E000E60CF71C081D191D9A01AB012A0D3B1DD1
:1009F0004C1D5D1D80E090E0A0E0B0E0E614F7043F
:100A00000805190520F481E090E0A0E0B0E0BA010B
:100A1000A901480F591F6A1F7B1FAA0CBB1CCC1CC5
:100A2000DD1C97FE08C081E090E0A0E0B0E0A82ABD
:100A3000B92ACA2ADB2A3196E032F10549F0660C60
:100A4000771C881C991C5694479437942794C3CFDD
:100A5000FA85EA892B893C898B859C85280F391F6B
:100A60002E5F3F4F17C0CA0181709070892B61F0D3
:100A700016950795F794E79480E090E0A0E0B0E841
:100A8000E82AF92A0A2B1B2B7695679557954795E7
:100A90002F5F3F4F77FDE7CF0CC0440F551F661FF8
:100AA000771F17FD4160EE0CFF1C001F111F215026
:100AB0003040403090E0590790E0690790E47907B2
:100AC00060F32B8F3C8FDB01CA018F779070A07091
:100AD000B07080349105A105B10561F447FD0AC0ED
:100AE000E114F1040105110529F0405C5F4F6F4FDF
:100AF0007F4F40781A8EFE1711F081E08A8F4D8F5C
:100B00005E8F6F8F78A383E0898FCE0149967ED167
:100B1000A096E2E164C3A8E1B0E0E0E9F5E04FC3EC
:100B200069837A838B839C832D833E834F8358878D
:100B300089E0E82EF12CEC0EFD1ECE010196B701E6
:100B40003AD28E010F5E1F4FCE010596B80133D207
:100B50008985823038F08989823020F0C701B80158
:100B6000A2D201C08FEF6896E6E045C3A8E1B0E0ED
:100B7000EBEBF5E024C369837A838B839C832D831D
:100B80003E834F83588789E0E82EF12CEC0EFD1E42
:100B9000CE010196B7010FD28E010F5E1F4FCE011D
:100BA0000596B80108D28985823038F0898982306B
:100BB00020F0C701B80177D201C08FEF6896E6E058
:100BC0001AC3A8E1B0E0E6EEF5E0F9C269837A83E2
:100BD0008B839C832D833E834F83588789E0E82E47
:100BE000F12CEC0EFD1ECE010196B701E4D18E0171
:100BF0000F5E1F4FCE010596B801DDD18985823089
:100C000038F08989823020F0C701B8014CD201C088
:100C100081E06896E6E0EFC2A8E0B0E0E1E1F6E04E
:100C2000CBC29B01AC0183E08983DA01C90188272B
:100C3000B7FD83959927AA27BB27B82E2115310523
:100C40004105510519F482E0898339C08823A9F050
:100C5000203080E0380780E0480780E8580729F412
:100C600060E070E080E09FEC2EC0EE24FF2487015E
:100C7000E21AF30A040B150B02C079018A018EE116
:100C8000C82ED12CDC82CB82ED82FE820F831887A6
:100C9000C801B7016CD001971816190684F4082E04
:100CA00004C0EE0CFF1C001F111F0A94D2F7ED8246
:100CB000FE820F831887C81AD90ADC82CB82BA82D7
:100CC000CE010196A3D02896E9E092C2ACE0B0E054
:100CD000EBE6F6E078C269837A838B839C83CE014E
:100CE0000196BE016B5F7F4F66D18D81823061F1CD
:100CF000823050F1843021F48E81882351F12EC04E
:100D00002F81388537FD20C06E812F3131051CF0D1
:100D10006623F9F023C08EE190E0821B930B2985B6
:100D20003A854B855C8504C0569547953795279540
:100D30008A95D2F76623B1F050954095309521956C
:100D40003F4F4F4F5F4F0EC020E030E040E050E09B
:100D500009C02FEF3FEF4FEF5FE704C020E030E026
:100D600040E050E8B901CA012C96E2E048C2EF9297
:100D7000FF920F931F937B018C0180E0E81680E0C7
:100D8000F80681E0080780E0180788F48FEFE8167E
:100D9000F1040105110531F028F088E090E0A0E0B1
:100DA000B0E017C080E090E0A0E0B0E012C080E0CA
:100DB000E81680E0F80680E0080781E0180728F0D0
:100DC00088E190E0A0E0B0E004C080E190E0A0E025
:100DD000B0E020E230E040E050E0281B390B4A0B45
:100DE0005B0B04C016950795F794E7948A95D2F7A4
:100DF000F701EB58FF4F8081281B31094109510948
:100E0000C9011F910F91FF90EF900895DF92EF922B
:100E1000FF920F931F93FC01E480F58006811781F8
:100E2000D1808081823048F480E090E0A0E1B0E0A1
:100E3000E82AF92A0A2B1B2BA5C0843009F49FC08D
:100E4000823021F4EE24FF24870105C0E114F1046F
:100E50000105110519F4E0E0F0E096C062817381AC
:100E60009FEF623879070CF05BC022E83FEF261B4A
:100E7000370B2A3131052CF020E030E040E050E023
:100E80002AC0B801A701022E04C076956795579530
:100E900047950A94D2F781E090E0A0E0B0E004C06A
:100EA000880F991FAA1FBB1F2A95D2F70197A10986
:100EB000B1098E219F21A023B1230097A105B1057F
:100EC00021F081E090E0A0E0B0E09A01AB01282B96
:100ED000392B4A2B5B2BDA01C9018F779070A070F8
:100EE000B07080349105A105B10539F427FF09C020
:100EF000205C3F4F4F4F5F4F04C0215C3F4F4F4F2F
:100F00005F4FE0E0F0E02030A0E03A07A0E04A07C1
:100F1000A0E45A0710F0E1E0F0E079018A0127C06F
:100F20006038710564F5FB01E158FF4FD801C70136
:100F30008F779070A070B07080349105A105B105D5
:100F400039F4E7FE0DC080E490E0A0E0B0E004C01A
:100F50008FE390E0A0E0B0E0E80EF91E0A1F1B1F2F
:100F600017FF05C016950795F794E794319687E02B
:100F700016950795F794E7948A95D1F705C0EE2466
:100F8000FF248701EFEFF0E06E2F679566276795E6
:100F9000902F9F77D794DD24D7948E2F8695492F55
:100FA000462B582F5D29B701CA011F910F91FF9061
:100FB000EF90DF900895FC01DB0140815181228197
:100FC000622F6F7770E0221F2227221F9381892FC3
:100FD000880F822B282F30E0991F9927991F11968F
:100FE0009C93119721153105A9F54115510561050E
:100FF000710511F482E037C082E89FEF13969C934D
:101000008E9312979A01AB0167E0220F331F441FA2
:10101000551F6A95D1F783E08C930DC0220F331FC3
:10102000441F551F12968D919C911397019713960B
:101030009C938E931297203080E0380780E0480719
:1010400080E4580758F314962D933D934D935C9389
:10105000179708952F3F310579F441155105610522
:10106000710519F484E08C93089564FF03C081E056
:101070008C9312C01C9210C02F57304013963C9393
:101080002E93129783E08C9387E0440F551F661FC1
:10109000771F8A95D1F7706414964D935D936D9385
:1010A0007C93179708951F93DC01FB019C9192306C
:1010B00008F447C08081823008F443C0943051F472
:1010C00011961C91843099F58181682F70E0611B25
:1010D00071093FC0843021F0923031F48230B9F18F
:1010E0008181882389F12DC011961C91119782303E
:1010F000F1F081811817D9F412962D913C91139734
:10110000828193818217930794F028173907BCF0E6
:1011100014968D919D910D90BC91A02D24813581C7
:1011200046815781281739074A075B0718F41123AE
:1011300041F00AC082179307A407B50740F41123B2
:1011400019F061E070E005C06FEF7FEF02C060E072
:1011500070E0CB011F91089597FB092E07260AD056
:1011600077FD04D00CD006D000201AF4709561955C
:101170007F4F0895F6F7909581959F4F0895AA1B8C
:10118000BB1B51E107C0AA1FBB1FA617B70710F072
:10119000A61BB70B881F991F5A95A9F780959095A4
:1011A000BC01CD0108952F923F924F925F926F92B2
:1011B0007F928F929F92AF92BF92CF92DF92EF92E7
:1011C000FF920F931F93CF93DF93CDB7DEB7CA1B68
:1011D000DB0B0FB6F894DEBF0FBECDBF09942A8893
:1011E000398848885F846E847D848C849B84AA843B
:1011F000B984C884DF80EE80FD800C811B81AA81C8
:10120000B981CE0FD11D0FB6F894DEBF0FBECDBF92
:10121000ED010895A0E0B0E0EFE0F9E0CCCFEC0103
:10122000A880B980CA80DB80A114B104C104D104B4
:1012300041F484E2A82E89EDB82E8BE5C82E87E014
:10124000D82EC601B5012DE133EF41E050E05AD070
:1012500027EA31E440E050E036D07B018C01C60142
:10126000B5012DE133EF41E050E04CD0CA01B901A6
:101270002CEE34EF4FEF5FEF26D06E0D7F1D801FF9
:10128000911F97FF04C06150704080409048688370
:1012900079838A839B839B013F77C901CDB7DEB7F2
:1012A000EAE0A5CFB7DF089585E791E0B3DF0895C1
:1012B000A0E0B0E08093750190937601A093770150
:1012C000B09378010895629FD001739FF001829FCF
:1012D000E00DF11D649FE00DF11D929FF00D839FC5
:1012E000F00D749FF00D659FF00D9927729FB00D62
:1012F000E11DF91F639FB00DE11DF91FBD01CF0175
:101300001124089597FB092E05260ED057FD04D011
:1013100014D00AD0001C38F4509540953095219592
:101320003F4F4F4F5F4F0895F6F79095809570951A
:1013300061957F4F8F4F9F4F0895A1E21A2EAA1BF0
:10134000BB1BFD010DC0AA1FBB1FEE1FFF1FA21775
:10135000B307E407F50720F0A21BB30BE40BF50B72
:10136000661F771F881F991F1A9469F760957095FB
:10137000809590959B01AC01BD01CF010895F89433
:02138000FFCF9D
:1013820001016400EFDFBF7F0102040801000000D9
:10139200000000000000010202030303030404042E
:1013A20004040404040505050505050505050505F0
:1013B20005050505050606060606060606060606D0
:1013C20006060606060606060606060606060606BB
:1013D20006060606060707070707070707070707A0
:1013E200070707070707070707070707070707078B
:1013F200070707070707070707070707070707077B
:10140200070707070707070707070707070707076A
:10141200070707070708080808080808080808084F
:10142200080808080808080808080808080808083A
:10143200080808080808080808080808080808082A
:10144200080808080808080808080808080808081A
:10145200080808080808080808080808080808080A
:1014620008080808080808080808080808080808FA
:1014720008080808080808080808080808080808EA
:1014820008080808080808080808080808080808DA
:0A1492000808080808010000000027
:00000001FF
