:1000000010C02AC029C028C027C026C025C024C0CF
:1000100023C022C021C020C01FC01EC01DC01CC0E4
:100020001BC011241FBECFE5D2E0DEBFCDBF10E064
:10003000A0E6B0E0ECE0F1E002C005900D92A83639
:10004000B107D9F710E0A8E6B0E001C01D92AA36CA
:10005000B107E1F706D058C0D3CF17BA85E988BBFE
:10006000089580EF8ABB8FE08BBB14BA89E985BB0A
:100070003ED088E645D083E343D008D088BB00005B
:10008000FCCF8FEF8ABB84E98BBB08951092680088
:100090004091690050E023C0E52FF0E0E05AFF4FA7
:1000A00080818BBB40E018C089B3242F30E0642FDF
:1000B0006F5FF901EC59FF4F9081892361F4409300
:1000C00069005093680084E0220F331F8A95E1F79E
:1000D000852F822B0895462F443031F75F5F5430CF
:1000E000D8F240936900509368008FEF089510BCD8
:1000F00089E189B9599886E080BD88E18AB9089577
:0C0100005D9BFECF8CB90895F894FFCFF2
:08010C00EFDFBF7F01020408D0
:00000001FF
